{
  "contractName": "Election",
  "abi": [
    {
      "constant": true,
      "inputs": [
        {
          "name": "",
          "type": "uint256"
        }
      ],
      "name": "candidates_arr",
      "outputs": [
        {
          "name": "party",
          "type": "string"
        },
        {
          "name": "candidate_id",
          "type": "address"
        },
        {
          "name": "votes_recv",
          "type": "uint256"
        }
      ],
      "payable": false,
      "stateMutability": "view",
      "type": "function"
    },
    {
      "inputs": [],
      "payable": false,
      "stateMutability": "nonpayable",
      "type": "constructor"
    },
    {
      "constant": false,
      "inputs": [
        {
          "name": "_length",
          "type": "uint256"
        }
      ],
      "name": "set_candidates_arr_len",
      "outputs": [],
      "payable": false,
      "stateMutability": "nonpayable",
      "type": "function"
    },
    {
      "constant": false,
      "inputs": [
        {
          "name": "toVoterr",
          "type": "string"
        }
      ],
      "name": "giveRightToVote",
      "outputs": [],
      "payable": false,
      "stateMutability": "nonpayable",
      "type": "function"
    },
    {
      "constant": false,
      "inputs": [
        {
          "name": "_candidate_ids",
          "type": "string"
        },
        {
          "name": "_party",
          "type": "string"
        }
      ],
      "name": "registerCandidates",
      "outputs": [],
      "payable": false,
      "stateMutability": "nonpayable",
      "type": "function"
    },
    {
      "constant": false,
      "inputs": [
        {
          "name": "_index",
          "type": "uint256"
        }
      ],
      "name": "vote",
      "outputs": [],
      "payable": false,
      "stateMutability": "nonpayable",
      "type": "function"
    }
  ],
  "bytecode": "0x60806040526000600255600060035534801561001a57600080fd5b5033600460006101000a81548173ffffffffffffffffffffffffffffffffffffffff021916908373ffffffffffffffffffffffffffffffffffffffff1602179055506001600080600460009054906101000a900473ffffffffffffffffffffffffffffffffffffffff1673ffffffffffffffffffffffffffffffffffffffff1673ffffffffffffffffffffffffffffffffffffffff16815260200190815260200160002060020160006101000a81548160ff021916908315150217905550610f77806100e76000396000f30060806040526004361061006d576000357c0100000000000000000000000000000000000000000000000000000000900463ffffffff1680630121b93f146100725780631faa036f1461009f5780637f9c414a1461017f578063a3e7ac91146101e8578063c1700e0014610215575b600080fd5b34801561007e57600080fd5b5061009d600480360381019080803590602001909291905050506102c4565b005b3480156100ab57600080fd5b506100ca600480360381019080803590602001909291905050506104db565b60405180806020018473ffffffffffffffffffffffffffffffffffffffff1673ffffffffffffffffffffffffffffffffffffffff168152602001838152602001828103825285818151815260200191508051906020019080838360005b83811015610142578082015181840152602081019050610127565b50505050905090810190601f16801561016f5780820380516001836020036101000a031916815260200191505b5094505050505060405180910390f35b34801561018b57600080fd5b506101e6600480360381019080803590602001908201803590602001908080601f01602080910402602001604051908101604052809392919081815260200183838082843782019150505050505091929192905050506105cc565b005b3480156101f457600080fd5b50610213600480360381019080803590602001909291905050506107e6565b005b34801561022157600080fd5b506102c2600480360381019080803590602001908201803590602001908080601f0160208091040260200160405190810160405280939291908181526020018383808284378201915050505050509192919290803590602001908201803590602001908080601f01602080910402602001604051908101604052809392919081815260200183838082843782019150505050505091929192905050506108e3565b005b60003390506000808273ffffffffffffffffffffffffffffffffffffffff1673ffffffffffffffffffffffffffffffffffffffff16815260200190815260200160002060000160009054906101000a900460ff1615151561038d576040517f08c379a000000000000000000000000000000000000000000000000000000000815260040180806020018281038252601f8152602001807f596f75206861766520616c726561647920566f7465642e205468616e6b73210081525060200191505060405180910390fd5b60018054905082101515610409576040517f08c379a00000000000000000000000000000000000000000000000000000000081526004018080602001828103825260198152602001807f53656c65637420726967687420696e64657820706c656173650000000000000081525060200191505060405180910390fd5b816000808373ffffffffffffffffffffffffffffffffffffffff1673ffffffffffffffffffffffffffffffffffffffff1681526020019081526020016000206001018190555060016000808373ffffffffffffffffffffffffffffffffffffffff1673ffffffffffffffffffffffffffffffffffffffff16815260200190815260200160002060000160006101000a81548160ff021916908315150217905550600180838154811015156104b957fe5b9060005260206000209060030201600201600082825401925050819055505050565b6001818154811015156104ea57fe5b9060005260206000209060030201600091509050806000018054600181600116156101000203166002900480601f0160208091040260200160405190810160405280929190818152602001828054600181600116156101000203166002900480156105965780601f1061056b57610100808354040283529160200191610596565b820191906000526020600020905b81548152906001019060200180831161057957829003601f168201915b5050505050908060010160009054906101000a900473ffffffffffffffffffffffffffffffffffffffff16908060020154905083565b6000600460009054906101000a900473ffffffffffffffffffffffffffffffffffffffff1673ffffffffffffffffffffffffffffffffffffffff163373ffffffffffffffffffffffffffffffffffffffff161415156106b9576040517f08c379a00000000000000000000000000000000000000000000000000000000081526004018080602001828103825260238152602001807f4f6e6c792061646d696e2063616e2061636365737320746869732066756e637481526020017f696f6e000000000000000000000000000000000000000000000000000000000081525060400191505060405180910390fd5b6106c282610ab1565b90506000808273ffffffffffffffffffffffffffffffffffffffff1673ffffffffffffffffffffffffffffffffffffffff16815260200190815260200160002060000160009054906101000a900460ff16151515610788576040517f08c379a00000000000000000000000000000000000000000000000000000000081526004018080602001828103825260178152602001807f20596f75206861766520616c726561647920766f74656400000000000000000081525060200191505060405180910390fd5b60016000808373ffffffffffffffffffffffffffffffffffffffff1673ffffffffffffffffffffffffffffffffffffffff16815260200190815260200160002060020160006101000a81548160ff0219169083151502179055505050565b600460009054906101000a900473ffffffffffffffffffffffffffffffffffffffff1673ffffffffffffffffffffffffffffffffffffffff163373ffffffffffffffffffffffffffffffffffffffff161415156108d1576040517f08c379a00000000000000000000000000000000000000000000000000000000081526004018080602001828103825260238152602001807f4f6e6c792061646d696e2063616e2061636365737320746869732066756e637481526020017f696f6e000000000000000000000000000000000000000000000000000000000081525060400191505060405180910390fd5b806001816108df9190610dce565b5050565b6000600460009054906101000a900473ffffffffffffffffffffffffffffffffffffffff1673ffffffffffffffffffffffffffffffffffffffff163373ffffffffffffffffffffffffffffffffffffffff161415156109d0576040517f08c379a00000000000000000000000000000000000000000000000000000000081526004018080602001828103825260238152602001807f4f6e6c792061646d696e2063616e2061636365737320746869732066756e637481526020017f696f6e000000000000000000000000000000000000000000000000000000000081525060400191505060405180910390fd5b6109d983610ab1565b90508060016002548154811015156109ed57fe5b906000526020600020906003020160010160006101000a81548173ffffffffffffffffffffffffffffffffffffffff021916908373ffffffffffffffffffffffffffffffffffffffff160217905550816001600254815481101515610a4e57fe5b90600052602060002090600302016000019080519060200190610a72929190610e00565b5060006001600254815481101515610a8657fe5b9060005260206000209060030201600201819055506001600260008282540192505081905550505050565b6000606060008060008086945060009350600290505b602a811015610dc157610100840293508481815181101515610ae557fe5b9060200101517f010000000000000000000000000000000000000000000000000000000000000090047f0100000000000000000000000000000000000000000000000000000000000000027f0100000000000000000000000000000000000000000000000000000000000000900460ff1692508460018201815181101515610b6957fe5b9060200101517f010000000000000000000000000000000000000000000000000000000000000090047f0100000000000000000000000000000000000000000000000000000000000000027f0100000000000000000000000000000000000000000000000000000000000000900460ff16915060618373ffffffffffffffffffffffffffffffffffffffff1610158015610c1a575060668373ffffffffffffffffffffffffffffffffffffffff1611155b15610c2a57605783039250610cc4565b60418373ffffffffffffffffffffffffffffffffffffffff1610158015610c68575060468373ffffffffffffffffffffffffffffffffffffffff1611155b15610c7857603783039250610cc3565b60308373ffffffffffffffffffffffffffffffffffffffff1610158015610cb6575060398373ffffffffffffffffffffffffffffffffffffffff1611155b15610cc2576030830392505b5b5b60618273ffffffffffffffffffffffffffffffffffffffff1610158015610d02575060668273ffffffffffffffffffffffffffffffffffffffff1611155b15610d1257605782039150610dac565b60418273ffffffffffffffffffffffffffffffffffffffff1610158015610d50575060468273ffffffffffffffffffffffffffffffffffffffff1611155b15610d6057603782039150610dab565b60308273ffffffffffffffffffffffffffffffffffffffff1610158015610d9e575060398273ffffffffffffffffffffffffffffffffffffffff1611155b15610daa576030820391505b5b5b81601084020184019350600281019050610ac7565b8395505050505050919050565b815481835581811115610dfb57600302816003028360005260206000209182019101610dfa9190610e80565b5b505050565b828054600181600116156101000203166002900490600052602060002090601f016020900481019282601f10610e4157805160ff1916838001178555610e6f565b82800160010185558215610e6f579182015b82811115610e6e578251825591602001919060010190610e53565b5b509050610e7c9190610ede565b5090565b610edb91905b80821115610ed75760008082016000610e9f9190610f03565b6001820160006101000a81549073ffffffffffffffffffffffffffffffffffffffff0219169055600282016000905550600301610e86565b5090565b90565b610f0091905b80821115610efc576000816000905550600101610ee4565b5090565b90565b50805460018160011615610100020316600290046000825580601f10610f295750610f48565b601f016020900490600052602060002090810190610f479190610ede565b5b505600a165627a7a723058206b1f13d810a96bdb95383ea1524a0310f9e3535a48ec06c345773cf0503c09580029",
  "source": "pragma solidity >=0.4.22 <0.6.0;\n\ncontract Election{\n    \n    struct voter{\n        bool isvoted;\n        uint256 vote; // the array index to be voted\n        bool rights;    // true, if someone has rights to vote\n        \n    }\n    mapping(address => voter) voters;\n    \n    struct candidate{\n        string party; \n        address candidate_id; // this is where votes will be sent.\n        uint256 votes_recv;\n    }\n    candidate[] public  candidates_arr;\n    \n    uint256 index = 0;\n    uint256 party_index =0;\n    \n    address admin;\n    \n    constructor() public{\n        admin = msg.sender;\n        voters[admin].rights  = true;   \n    }\n    \n    modifier onlyadmin{\n        require(msg.sender == admin, 'Only admin can access this function');\n        _;\n    }\n    \n    // address parser\n    function parseAddr(string memory _a) internal pure returns (address _parsedAddress) {\n    bytes memory tmp = bytes(_a);\n    uint160 iaddr = 0;\n    uint160 b1;\n    uint160 b2;\n    for (uint i = 2; i < 2 + 2 * 20; i += 2) {\n        iaddr *= 256;\n        b1 = uint160(uint8(tmp[i]));\n        b2 = uint160(uint8(tmp[i + 1]));\n        if ((b1 >= 97) && (b1 <= 102)) {\n            b1 -= 87;\n        } else if ((b1 >= 65) && (b1 <= 70)) {\n            b1 -= 55;\n        } else if ((b1 >= 48) && (b1 <= 57)) {\n            b1 -= 48;\n        }\n        if ((b2 >= 97) && (b2 <= 102)) {\n            b2 -= 87;\n        } else if ((b2 >= 65) && (b2 <= 70)) {\n            b2 -= 55;\n        } else if ((b2 >= 48) && (b2 <= 57)) {\n            b2 -= 48;\n        }\n        iaddr += (b1 * 16 + b2);\n    \n    }\n    return address(iaddr);\n    }\n    \n    \n    // set array length\n    function set_candidates_arr_len(uint256 _length) onlyadmin public{\n        candidates_arr.length = _length;    \n    }\n    \n\n    // give rights to voter\n    function giveRightToVote(string memory toVoterr) onlyadmin  public {\n        address toVoter = parseAddr(toVoterr);\n        require(!voters[toVoter].isvoted, ' You have already voted');\n        voters[toVoter].rights = true;\n    }\n    \n    // register candidates\n    function registerCandidates(string memory _candidate_ids, string memory _party) onlyadmin public{\n        address _candidate_id = parseAddr(_candidate_ids);\n        candidates_arr[index].candidate_id = _candidate_id;\n        candidates_arr[index].party = _party;\n        candidates_arr[index].votes_recv = 0;\n        index+=1;\n    }\n    \n    // Cast Vote // require only_registered \n    function vote(uint256 _index) public{\n        address newvoter = msg.sender;\n        require(!voters[newvoter].isvoted,'You have already Voted. Thanks!');\n        require(_index < candidates_arr.length, 'Select right index please');\n        voters[newvoter].vote = _index;\n        voters[newvoter].isvoted = true;\n        candidates_arr[_index].votes_recv += 1;\n    }\n\n}\n\n\n    \n        // modifier beforestartdate{}\n    \n    // modifier afterenddate{}\n    \n    // modifier validelctiontime{}\n    ",
  "sourcePath": "/home/siddhant/Internship_CIDR/server-authentication/Blockchain/contracts/Election.sol",
  "compiler": {
    "name": "solc",
    "version": "0.4.24+commit.e67f0147.Emscripten.clang"
  },
  "schemaVersion": "2.0.0",
  "updatedAt": "2019-06-11T07:01:02.240Z"
}