{
  "contractName": "Election",
  "abi": [
    {
      "constant": true,
      "inputs": [
        {
          "name": "",
          "type": "uint256"
        }
      ],
      "name": "candidates_arr",
      "outputs": [
        {
          "name": "party",
          "type": "string"
        },
        {
          "name": "candidate_id",
          "type": "address"
        },
        {
          "name": "votes_recv",
          "type": "uint256"
        }
      ],
      "payable": false,
      "stateMutability": "view",
      "type": "function"
    },
    {
      "inputs": [
        {
          "name": "_numcandidates",
          "type": "uint8"
        }
      ],
      "payable": false,
      "stateMutability": "nonpayable",
      "type": "constructor"
    },
    {
      "constant": false,
      "inputs": [
        {
          "name": "toVoter",
          "type": "address"
        }
      ],
      "name": "giveRightToVote",
      "outputs": [],
      "payable": false,
      "stateMutability": "nonpayable",
      "type": "function"
    },
    {
      "constant": false,
      "inputs": [
        {
          "name": "_candidate_id",
          "type": "address"
        },
        {
          "name": "_party",
          "type": "string"
        }
      ],
      "name": "registerCandidates",
      "outputs": [],
      "payable": false,
      "stateMutability": "nonpayable",
      "type": "function"
    },
    {
      "constant": false,
      "inputs": [
        {
          "name": "_index",
          "type": "uint256"
        }
      ],
      "name": "vote",
      "outputs": [],
      "payable": false,
      "stateMutability": "nonpayable",
      "type": "function"
    }
  ],
  "bytecode": "0x60806040526000600255600060035534801561001a57600080fd5b50604051602080610bc58339810180604052602081101561003a57600080fd5b810190808051906020019092919050505033600460006101000a81548173ffffffffffffffffffffffffffffffffffffffff021916908373ffffffffffffffffffffffffffffffffffffffff1602179055508060ff1660018161009d9190610120565b506001600080600460009054906101000a900473ffffffffffffffffffffffffffffffffffffffff1673ffffffffffffffffffffffffffffffffffffffff1673ffffffffffffffffffffffffffffffffffffffff16815260200190815260200160002060020160006101000a81548160ff0219169083151502179055505061021d565b81548183558181111561014d5760030281600302836000526020600020918201910161014c9190610152565b5b505050565b6101ad91905b808211156101a9576000808201600061017191906101b0565b6001820160006101000a81549073ffffffffffffffffffffffffffffffffffffffff0219169055600282016000905550600301610158565b5090565b90565b50805460018160011615610100020316600290046000825580601f106101d657506101f5565b601f0160209004906000526020600020908101906101f491906101f8565b5b50565b61021a91905b808211156102165760008160009055506001016101fe565b5090565b90565b6109998061022c6000396000f3fe608060405260043610610062576000357c0100000000000000000000000000000000000000000000000000000000900463ffffffff1680630121b93f146100675780631faa036f146100a25780639e7b8d6114610190578063cbfce1a9146101e1575b600080fd5b34801561007357600080fd5b506100a06004803603602081101561008a57600080fd5b81019080803590602001909291905050506102c9565b005b3480156100ae57600080fd5b506100db600480360360208110156100c557600080fd5b810190808035906020019092919050505061040b565b60405180806020018473ffffffffffffffffffffffffffffffffffffffff1673ffffffffffffffffffffffffffffffffffffffff168152602001838152602001828103825285818151815260200191508051906020019080838360005b83811015610153578082015181840152602081019050610138565b50505050905090810190601f1680156101805780820380516001836020036101000a031916815260200191505b5094505050505060405180910390f35b34801561019c57600080fd5b506101df600480360360208110156101b357600080fd5b81019080803573ffffffffffffffffffffffffffffffffffffffff1690602001909291905050506104fc565b005b3480156101ed57600080fd5b506102c76004803603604081101561020457600080fd5b81019080803573ffffffffffffffffffffffffffffffffffffffff1690602001909291908035906020019064010000000081111561024157600080fd5b82018360208201111561025357600080fd5b8035906020019184600183028401116401000000008311171561027557600080fd5b91908080601f016020809104026020016040519081016040528093929190818152602001838380828437600081840152601f19601f820116905080830192505050505050509192919290505050610708565b005b60003390506000808273ffffffffffffffffffffffffffffffffffffffff1673ffffffffffffffffffffffffffffffffffffffff16815260200190815260200160002060000160009054906101000a900460ff168061032d57506001805490508210155b156103385750610408565b816000808373ffffffffffffffffffffffffffffffffffffffff1673ffffffffffffffffffffffffffffffffffffffff1681526020019081526020016000206001018190555060016000808373ffffffffffffffffffffffffffffffffffffffff1673ffffffffffffffffffffffffffffffffffffffff16815260200190815260200160002060000160006101000a81548160ff021916908315150217905550600180838154811015156103e857fe5b906000526020600020906003020160020160008282540192505081905550505b50565b60018181548110151561041a57fe5b9060005260206000209060030201600091509050806000018054600181600116156101000203166002900480601f0160208091040260200160405190810160405280929190818152602001828054600181600116156101000203166002900480156104c65780601f1061049b576101008083540402835291602001916104c6565b820191906000526020600020905b8154815290600101906020018083116104a957829003601f168201915b5050505050908060010160009054906101000a900473ffffffffffffffffffffffffffffffffffffffff16908060020154905083565b600460009054906101000a900473ffffffffffffffffffffffffffffffffffffffff1673ffffffffffffffffffffffffffffffffffffffff163373ffffffffffffffffffffffffffffffffffffffff161415156105e7576040517f08c379a00000000000000000000000000000000000000000000000000000000081526004018080602001828103825260238152602001807f4f6e6c792061646d696e2063616e2061636365737320746869732066756e637481526020017f696f6e000000000000000000000000000000000000000000000000000000000081525060400191505060405180910390fd5b6000808273ffffffffffffffffffffffffffffffffffffffff1673ffffffffffffffffffffffffffffffffffffffff16815260200190815260200160002060000160009054906101000a900460ff161515156106ab576040517f08c379a00000000000000000000000000000000000000000000000000000000081526004018080602001828103825260178152602001807f20596f75206861766520616c726561647920766f74656400000000000000000081525060200191505060405180910390fd5b60016000808373ffffffffffffffffffffffffffffffffffffffff1673ffffffffffffffffffffffffffffffffffffffff16815260200190815260200160002060020160006101000a81548160ff02191690831515021790555050565b600460009054906101000a900473ffffffffffffffffffffffffffffffffffffffff1673ffffffffffffffffffffffffffffffffffffffff163373ffffffffffffffffffffffffffffffffffffffff161415156107f3576040517f08c379a00000000000000000000000000000000000000000000000000000000081526004018080602001828103825260238152602001807f4f6e6c792061646d696e2063616e2061636365737320746869732066756e637481526020017f696f6e000000000000000000000000000000000000000000000000000000000081525060400191505060405180910390fd5b81600160025481548110151561080557fe5b906000526020600020906003020160010160006101000a81548173ffffffffffffffffffffffffffffffffffffffff021916908373ffffffffffffffffffffffffffffffffffffffff16021790555080600160025481548110151561086657fe5b9060005260206000209060030201600001908051906020019061088a9291906108c8565b506000600160025481548110151561089e57fe5b90600052602060002090600302016002018190555060016002600082825401925050819055505050565b828054600181600116156101000203166002900490600052602060002090601f016020900481019282601f1061090957805160ff1916838001178555610937565b82800160010185558215610937579182015b8281111561093657825182559160200191906001019061091b565b5b5090506109449190610948565b5090565b61096a91905b8082111561096657600081600090555060010161094e565b5090565b9056fea165627a7a72305820cc137b0322641bc1fd606307c42428f78209664778dab7f41b083654dbc992880029",
  "source": "pragma solidity ^0.5.0;\n\ncontract Election{\n    \n    struct voter{\n        bool isvoted;\n        uint256 vote; // the array index to be voted\n        bool rights;    // true, if someone has rights to vote\n        \n    }\n    mapping(address => voter) voters;\n    \n    struct candidate{\n        string party; \n        address candidate_id; // this is where votes will be sent.\n        uint256 votes_recv;\n    }\n    candidate[] public  candidates_arr;\n    \n    uint256 index = 0;\n    uint256 party_index =0;\n    \n    address admin;\n    \n    constructor(uint8 _numcandidates) public{\n        admin = msg.sender;\n        candidates_arr.length = _numcandidates;\n        voters[admin].rights  = true;   \n    }\n    \n    modifier onlyadmin{\n        require(msg.sender == admin, 'Only admin can access this function');\n        _;\n    }\n    \n\n    // give rights to voter\n    function giveRightToVote(address toVoter) onlyadmin  public {\n        require(!voters[toVoter].isvoted, ' You have already voted');\n        voters[toVoter].rights = true;\n    }\n    \n    // register candidates\n    function registerCandidates(address _candidate_id, string memory _party) onlyadmin public{\n        candidates_arr[index].candidate_id = _candidate_id;\n        candidates_arr[index].party = _party;\n        candidates_arr[index].votes_recv = 0;\n        index+=1;\n    }\n    // Cast Vote\n    function vote(uint256 _index) public{\n        address newvoter = msg.sender;\n        if (voters[newvoter].isvoted || _index >= candidates_arr.length) return;\n        voters[newvoter].vote = _index;\n        voters[newvoter].isvoted = true;\n        candidates_arr[_index].votes_recv += 1;\n    }\n\n}\n\n\n    // status\n    // function status() public view returns(address winner_candidate, string memory winner_party){\n    //     uint256 winningVoteCount = 0;\n    //     for(uint8 i=0;i<candidates_arr.length;i+=1){\n    //         if(candidates_arr[i].votes_recv > winningVoteCount){\n    //             winningVoteCount = candidates_arr[i].votes_recv;\n    //             winner_candidate = candidates_arr[i].candidate_id;\n                \n    //             bool check =false;\n    //             for(uint8 j=0; j<parties_arr.length; j+=1){\n    //                 if( parties_arr[j].party == candidates_arr[i].party){\n    //                     parties_arr[j].no_votes +=1;\n    //                     parties_arr[j].no_candidates +=1;\n    //                     check = true;\n    //                     break;\n    //                 }\n    //             }\n    //             if (check == false){\n    //                 parties_arr[party_index].party = candidates_arr[i].party;\n    //                 parties_arr[party_index].no_candidates += 1;\n    //                 parties_arr[party_index].no_votes += 1;\n    //             }\n                \n    //         }\n    //     }\n    // }\n    \n    \n    \n    \n    \n        // modifier beforestartdate{}\n    \n    // modifier afterenddate{}\n    \n    // modifier validelctiontime{}\n    \n",
  "sourcePath": "/home/siddhant/Internship_CIDR/server-authentication/Blockchain/contracts/Election.sol",
  "compiler": {
    "name": "solc",
    "version": "0.5.0+commit.1d4f565a.Emscripten.clang"
  },
  "schemaVersion": "3.0.9",
  "updatedAt": "2019-05-30T03:14:47.191Z",
  "devdoc": {
    "methods": {}
  },
  "userdoc": {
    "methods": {}
  }
}