{
  "abi": [
    {
      "constant": true,
      "inputs": [
        {
          "name": "amount",
          "type": "uint256"
        },
        {
          "name": "conversionRate",
          "type": "uint256"
        }
      ],
      "name": "convert",
      "outputs": [
        {
          "name": "convertedAmount",
          "type": "uint256"
        }
      ],
      "payable": false,
      "stateMutability": "pure",
      "type": "function"
    }
  ],
  "evm": {
    "bytecode": {
      "linkReferences": {},
      "object": "60c3610025600b82828239805160001a60731461001857fe5b30600052607381538281f3fe730000000000000000000000000000000000000000301460806040526004361060335760003560e01c806396e4ee3d146038575b600080fd5b606b60048036036040811015604c57600080fd5b8101908080359060200190929190803590602001909291905050506081565b6040518082815260200191505060405180910390f35b600081830290509291505056fea265627a7a72305820a0e6890f936f892cfcead341b464b3861bbb1be3e5cdb4a174b3e53babf02d0564736f6c63430005090032",
      "opcodes": "PUSH1 0xC3 PUSH2 0x25 PUSH1 0xB DUP3 DUP3 DUP3 CODECOPY DUP1 MLOAD PUSH1 0x0 BYTE PUSH1 0x73 EQ PUSH2 0x18 JUMPI INVALID JUMPDEST ADDRESS PUSH1 0x0 MSTORE PUSH1 0x73 DUP2 MSTORE8 DUP3 DUP2 RETURN INVALID PUSH20 0x0 ADDRESS EQ PUSH1 0x80 PUSH1 0x40 MSTORE PUSH1 0x4 CALLDATASIZE LT PUSH1 0x33 JUMPI PUSH1 0x0 CALLDATALOAD PUSH1 0xE0 SHR DUP1 PUSH4 0x96E4EE3D EQ PUSH1 0x38 JUMPI JUMPDEST PUSH1 0x0 DUP1 REVERT JUMPDEST PUSH1 0x6B PUSH1 0x4 DUP1 CALLDATASIZE SUB PUSH1 0x40 DUP2 LT ISZERO PUSH1 0x4C JUMPI PUSH1 0x0 DUP1 REVERT JUMPDEST DUP2 ADD SWAP1 DUP1 DUP1 CALLDATALOAD SWAP1 PUSH1 0x20 ADD SWAP1 SWAP3 SWAP2 SWAP1 DUP1 CALLDATALOAD SWAP1 PUSH1 0x20 ADD SWAP1 SWAP3 SWAP2 SWAP1 POP POP POP PUSH1 0x81 JUMP JUMPDEST PUSH1 0x40 MLOAD DUP1 DUP3 DUP2 MSTORE PUSH1 0x20 ADD SWAP2 POP POP PUSH1 0x40 MLOAD DUP1 SWAP2 SUB SWAP1 RETURN JUMPDEST PUSH1 0x0 DUP2 DUP4 MUL SWAP1 POP SWAP3 SWAP2 POP POP JUMP INVALID LOG2 PUSH6 0x627A7A723058 KECCAK256 LOG0 0xe6 DUP10 0xf SWAP4 PUSH16 0x892CFCEAD341B464B3861BBB1BE3E5CD 0xb4 LOG1 PUSH21 0xB3E53BABF02D0564736F6C63430005090032000000 "
    }
  }
}