{
  "contractName": "Election",
  "abi": [
    {
      "constant": true,
      "inputs": [
        {
          "name": "",
          "type": "uint256"
        }
      ],
      "name": "candidates_arr",
      "outputs": [
        {
          "name": "party",
          "type": "string"
        },
        {
          "name": "candidate_id",
          "type": "address"
        },
        {
          "name": "votes_recv",
          "type": "uint256"
        }
      ],
      "payable": false,
      "stateMutability": "view",
      "type": "function"
    },
    {
      "inputs": [],
      "payable": false,
      "stateMutability": "nonpayable",
      "type": "constructor"
    },
    {
      "constant": false,
      "inputs": [
        {
          "name": "_length",
          "type": "uint256"
        }
      ],
      "name": "set_candidates_arr_len",
      "outputs": [],
      "payable": false,
      "stateMutability": "nonpayable",
      "type": "function"
    },
    {
      "constant": false,
      "inputs": [
        {
          "name": "toVoterr",
          "type": "string"
        }
      ],
      "name": "giveRightToVote",
      "outputs": [],
      "payable": false,
      "stateMutability": "nonpayable",
      "type": "function"
    },
    {
      "constant": false,
      "inputs": [
        {
          "name": "_candidate_ids",
          "type": "string"
        },
        {
          "name": "_party",
          "type": "string"
        }
      ],
      "name": "registerCandidates",
      "outputs": [],
      "payable": false,
      "stateMutability": "nonpayable",
      "type": "function"
    },
    {
      "constant": false,
      "inputs": [
        {
          "name": "_index",
          "type": "uint256"
        }
      ],
      "name": "vote",
      "outputs": [],
      "payable": false,
      "stateMutability": "nonpayable",
      "type": "function"
    },
    {
      "constant": false,
      "inputs": [],
      "name": "results",
      "outputs": [
        {
          "name": "_BJP1",
          "type": "uint256"
        },
        {
          "name": "_CONGRESS1",
          "type": "uint256"
        },
        {
          "name": "_AAP1",
          "type": "uint256"
        },
        {
          "name": "_OTHERS1",
          "type": "uint256"
        }
      ],
      "payable": false,
      "stateMutability": "nonpayable",
      "type": "function"
    }
  ],
  "bytecode": "0x6080604052600060025560006003556000600455600060055560006006556000600755600060085534801561003357600080fd5b5033600960006101000a81548173ffffffffffffffffffffffffffffffffffffffff021916908373ffffffffffffffffffffffffffffffffffffffff1602179055506001600080600960009054906101000a900473ffffffffffffffffffffffffffffffffffffffff1673ffffffffffffffffffffffffffffffffffffffff1673ffffffffffffffffffffffffffffffffffffffff16815260200190815260200160002060020160006101000a81548160ff02191690831515021790555061156d806101006000396000f300608060405260043610610078576000357c0100000000000000000000000000000000000000000000000000000000900463ffffffff1680630121b93f1461007d5780631faa036f146100aa5780637f9c414a1461018a578063a3e7ac91146101f3578063a48bdb7c14610220578063c1700e0014610260575b600080fd5b34801561008957600080fd5b506100a86004803603810190808035906020019092919050505061030f565b005b3480156100b657600080fd5b506100d560048036038101908080359060200190929190505050610526565b60405180806020018473ffffffffffffffffffffffffffffffffffffffff1673ffffffffffffffffffffffffffffffffffffffff168152602001838152602001828103825285818151815260200191508051906020019080838360005b8381101561014d578082015181840152602081019050610132565b50505050905090810190601f16801561017a5780820380516001836020036101000a031916815260200191505b5094505050505060405180910390f35b34801561019657600080fd5b506101f1600480360381019080803590602001908201803590602001908080601f0160208091040260200160405190810160405280939291908181526020018383808284378201915050505050509192919290505050610617565b005b3480156101ff57600080fd5b5061021e60048036038101908080359060200190929190505050610831565b005b34801561022c57600080fd5b50610235610935565b6040518085815260200184815260200183815260200182815260200194505050505060405180910390f35b34801561026c57600080fd5b5061030d600480360381019080803590602001908201803590602001908080601f0160208091040260200160405190810160405280939291908181526020018383808284378201915050505050509192919290803590602001908201803590602001908080601f0160208091040260200160405190810160405280939291908181526020018383808284378201915050505050509192919290505050610ed9565b005b60003390506000808273ffffffffffffffffffffffffffffffffffffffff1673ffffffffffffffffffffffffffffffffffffffff16815260200190815260200160002060000160009054906101000a900460ff161515156103d8576040517f08c379a000000000000000000000000000000000000000000000000000000000815260040180806020018281038252601f8152602001807f596f75206861766520616c726561647920566f7465642e205468616e6b73210081525060200191505060405180910390fd5b60018054905082101515610454576040517f08c379a00000000000000000000000000000000000000000000000000000000081526004018080602001828103825260198152602001807f53656c65637420726967687420696e64657820706c656173650000000000000081525060200191505060405180910390fd5b816000808373ffffffffffffffffffffffffffffffffffffffff1673ffffffffffffffffffffffffffffffffffffffff1681526020019081526020016000206001018190555060016000808373ffffffffffffffffffffffffffffffffffffffff1673ffffffffffffffffffffffffffffffffffffffff16815260200190815260200160002060000160006101000a81548160ff0219169083151502179055506001808381548110151561050457fe5b9060005260206000209060030201600201600082825401925050819055505050565b60018181548110151561053557fe5b9060005260206000209060030201600091509050806000018054600181600116156101000203166002900480601f0160208091040260200160405190810160405280929190818152602001828054600181600116156101000203166002900480156105e15780601f106105b6576101008083540402835291602001916105e1565b820191906000526020600020905b8154815290600101906020018083116105c457829003601f168201915b5050505050908060010160009054906101000a900473ffffffffffffffffffffffffffffffffffffffff16908060020154905083565b6000600960009054906101000a900473ffffffffffffffffffffffffffffffffffffffff1673ffffffffffffffffffffffffffffffffffffffff163373ffffffffffffffffffffffffffffffffffffffff16141515610704576040517f08c379a00000000000000000000000000000000000000000000000000000000081526004018080602001828103825260238152602001807f4f6e6c792061646d696e2063616e2061636365737320746869732066756e637481526020017f696f6e000000000000000000000000000000000000000000000000000000000081525060400191505060405180910390fd5b61070d826110a7565b90506000808273ffffffffffffffffffffffffffffffffffffffff1673ffffffffffffffffffffffffffffffffffffffff16815260200190815260200160002060000160009054906101000a900460ff161515156107d3576040517f08c379a00000000000000000000000000000000000000000000000000000000081526004018080602001828103825260188152602001807f20566f7465722068617320616c726561647920766f746564000000000000000081525060200191505060405180910390fd5b60016000808373ffffffffffffffffffffffffffffffffffffffff1673ffffffffffffffffffffffffffffffffffffffff16815260200190815260200160002060020160006101000a81548160ff0219169083151502179055505050565b600960009054906101000a900473ffffffffffffffffffffffffffffffffffffffff1673ffffffffffffffffffffffffffffffffffffffff163373ffffffffffffffffffffffffffffffffffffffff1614151561091c576040517f08c379a00000000000000000000000000000000000000000000000000000000081526004018080602001828103825260238152602001807f4f6e6c792061646d696e2063616e2061636365737320746869732066756e637481526020017f696f6e000000000000000000000000000000000000000000000000000000000081525060400191505060405180910390fd5b8060018161092a91906113c4565b508060028190555050565b6000806000806000600960009054906101000a900473ffffffffffffffffffffffffffffffffffffffff1673ffffffffffffffffffffffffffffffffffffffff163373ffffffffffffffffffffffffffffffffffffffff16141515610a28576040517f08c379a00000000000000000000000000000000000000000000000000000000081526004018080602001828103825260238152602001807f4f6e6c792061646d696e2063616e2061636365737320746869732066756e637481526020017f696f6e000000000000000000000000000000000000000000000000000000000081525060400191505060405180910390fd5b600090505b600254811015610ebe5760405180807f424a5000000000000000000000000000000000000000000000000000000000008152506003019050604051809103902060001916600182815481101515610a8057fe5b90600052602060002090600302016000016040516020018082805460018160011615610100020316600290048015610aef5780601f10610acd576101008083540402835291820191610aef565b820191906000526020600020905b815481529060010190602001808311610adb575b50509150506040516020818303038152906040526040518082805190602001908083835b602083101515610b385780518252602082019150602081019050602083039250610b13565b6001836020036101000a0380198251168184511680821785525050505050509050019150506040518091039020600019161415610ba457600181815481101515610b7e57fe5b906000526020600020906003020160020154600360008282540192505081905550610eb1565b60405180807f434f4e47524553530000000000000000000000000000000000000000000000008152506008019050604051809103902060001916600182815481101515610bed57fe5b90600052602060002090600302016000016040516020018082805460018160011615610100020316600290048015610c5c5780601f10610c3a576101008083540402835291820191610c5c565b820191906000526020600020905b815481529060010190602001808311610c48575b50509150506040516020818303038152906040526040518082805190602001908083835b602083101515610ca55780518252602082019150602081019050602083039250610c80565b6001836020036101000a0380198251168184511680821785525050505050509050019150506040518091039020600019161415610d1157600181815481101515610ceb57fe5b906000526020600020906003020160020154600460008282540192505081905550610eb0565b60405180807f41415000000000000000000000000000000000000000000000000000000000008152506003019050604051809103902060001916600182815481101515610d5a57fe5b90600052602060002090600302016000016040516020018082805460018160011615610100020316600290048015610dc95780601f10610da7576101008083540402835291820191610dc9565b820191906000526020600020905b815481529060010190602001808311610db5575b50509150506040516020818303038152906040526040518082805190602001908083835b602083101515610e125780518252602082019150602081019050602083039250610ded565b6001836020036101000a0380198251168184511680821785525050505050509050019150506040518091039020600019161415610e7e57600181815481101515610e5857fe5b906000526020600020906003020160020154600560008282540192505081905550610eaf565b600181815481101515610e8d57fe5b9060005260206000209060030201600201546006600082825401925050819055505b5b5b8080600101915050610a2d565b60035460045460055460065494509450945094505090919293565b6000600960009054906101000a900473ffffffffffffffffffffffffffffffffffffffff1673ffffffffffffffffffffffffffffffffffffffff163373ffffffffffffffffffffffffffffffffffffffff16141515610fc6576040517f08c379a00000000000000000000000000000000000000000000000000000000081526004018080602001828103825260238152602001807f4f6e6c792061646d696e2063616e2061636365737320746869732066756e637481526020017f696f6e000000000000000000000000000000000000000000000000000000000081525060400191505060405180910390fd5b610fcf836110a7565b9050806001600754815481101515610fe357fe5b906000526020600020906003020160010160006101000a81548173ffffffffffffffffffffffffffffffffffffffff021916908373ffffffffffffffffffffffffffffffffffffffff16021790555081600160075481548110151561104457fe5b906000526020600020906003020160000190805190602001906110689291906113f6565b506000600160075481548110151561107c57fe5b9060005260206000209060030201600201819055506001600760008282540192505081905550505050565b6000606060008060008086945060009350600290505b602a8110156113b7576101008402935084818151811015156110db57fe5b9060200101517f010000000000000000000000000000000000000000000000000000000000000090047f0100000000000000000000000000000000000000000000000000000000000000027f0100000000000000000000000000000000000000000000000000000000000000900460ff169250846001820181518110151561115f57fe5b9060200101517f010000000000000000000000000000000000000000000000000000000000000090047f0100000000000000000000000000000000000000000000000000000000000000027f0100000000000000000000000000000000000000000000000000000000000000900460ff16915060618373ffffffffffffffffffffffffffffffffffffffff1610158015611210575060668373ffffffffffffffffffffffffffffffffffffffff1611155b15611220576057830392506112ba565b60418373ffffffffffffffffffffffffffffffffffffffff161015801561125e575060468373ffffffffffffffffffffffffffffffffffffffff1611155b1561126e576037830392506112b9565b60308373ffffffffffffffffffffffffffffffffffffffff16101580156112ac575060398373ffffffffffffffffffffffffffffffffffffffff1611155b156112b8576030830392505b5b5b60618273ffffffffffffffffffffffffffffffffffffffff16101580156112f8575060668273ffffffffffffffffffffffffffffffffffffffff1611155b15611308576057820391506113a2565b60418273ffffffffffffffffffffffffffffffffffffffff1610158015611346575060468273ffffffffffffffffffffffffffffffffffffffff1611155b15611356576037820391506113a1565b60308273ffffffffffffffffffffffffffffffffffffffff1610158015611394575060398273ffffffffffffffffffffffffffffffffffffffff1611155b156113a0576030820391505b5b5b816010840201840193506002810190506110bd565b8395505050505050919050565b8154818355818111156113f1576003028160030283600052602060002091820191016113f09190611476565b5b505050565b828054600181600116156101000203166002900490600052602060002090601f016020900481019282601f1061143757805160ff1916838001178555611465565b82800160010185558215611465579182015b82811115611464578251825591602001919060010190611449565b5b50905061147291906114d4565b5090565b6114d191905b808211156114cd576000808201600061149591906114f9565b6001820160006101000a81549073ffffffffffffffffffffffffffffffffffffffff021916905560028201600090555060030161147c565b5090565b90565b6114f691905b808211156114f25760008160009055506001016114da565b5090565b90565b50805460018160011615610100020316600290046000825580601f1061151f575061153e565b601f01602090049060005260206000209081019061153d91906114d4565b5b505600a165627a7a723058206a2cdfd0d8be799745a82608f222c5f23ff368c1d31a5d36e0f39b464b2dbcc30029",
  "source": "    pragma solidity >=0.4.25;\n    contract Election{\n        \n        struct voter{\n            bool isvoted;\n            uint256 vote; // the array index to be voted\n            bool rights;    // true, if someone has rights to vote\n            \n        }\n        mapping(address => voter) voters;\n        \n        struct candidate{\n            string party; \n            address candidate_id; // this is where votes will be sent.\n            uint256 votes_recv;\n        }\n        candidate[] public  candidates_arr;\n        uint256 candidates_arr_length = 0;\n        \n        uint256 _BJP =0;\n        uint256 _CONGRESS =0;\n        uint256 _AAP =0;\n        uint256 _OTHERS = 0;\n        \n        uint256 index = 0;\n        uint256 party_index =0;\n        \n        address admin;\n        \n        constructor() public{\n            admin = msg.sender;\n            voters[admin].rights  = true;   \n        }\n        \n        modifier onlyadmin{\n            require(msg.sender == admin, 'Only admin can access this function');\n            _;\n        }\n        \n        // address parser\n        function parseAddr(string memory _a) internal pure returns (address _parsedAddress) {\n        bytes memory tmp = bytes(_a);\n        uint160 iaddr = 0;\n        uint160 b1;\n        uint160 b2;\n        for (uint i = 2; i < 2 + 2 * 20; i += 2) {\n            iaddr *= 256;\n            b1 = uint160(uint8(tmp[i]));\n            b2 = uint160(uint8(tmp[i + 1]));\n            if ((b1 >= 97) && (b1 <= 102)) {\n                b1 -= 87;\n            } else if ((b1 >= 65) && (b1 <= 70)) {\n                b1 -= 55;\n            } else if ((b1 >= 48) && (b1 <= 57)) {\n                b1 -= 48;\n            }\n            if ((b2 >= 97) && (b2 <= 102)) {\n                b2 -= 87;\n            } else if ((b2 >= 65) && (b2 <= 70)) {\n                b2 -= 55;\n            } else if ((b2 >= 48) && (b2 <= 57)) {\n                b2 -= 48;\n            }\n            iaddr += (b1 * 16 + b2);\n        \n        }\n        return address(uint160(iaddr));\n        }\n        \n        \n        // set array length\n        function set_candidates_arr_len(uint256 _length) onlyadmin public{\n            candidates_arr.length = _length;\n            candidates_arr_length = _length;\n        }\n        \n\n        // give rights to voter\n        function giveRightToVote(string memory toVoterr) onlyadmin public {\n            address toVoter = parseAddr(toVoterr);\n            require(!voters[toVoter].isvoted, ' Voter has already voted');\n            voters[toVoter].rights = true;\n        }\n        \n        \n        // register candidates\n        function registerCandidates(string memory _candidate_ids, string memory _party) onlyadmin public{\n            address _candidate_id = parseAddr(_candidate_ids);\n            candidates_arr[index].candidate_id = _candidate_id;\n            candidates_arr[index].party = _party;\n            candidates_arr[index].votes_recv = 0;\n            index+=1;\n        }\n        \n        // Cast Vote // require only_registered \n        function vote(uint256 _index) public{\n            address newvoter = msg.sender;\n            require(!voters[newvoter].isvoted,'You have already Voted. Thanks!');\n            require(_index < candidates_arr.length, 'Select right index please');\n            voters[newvoter].vote = _index;\n            voters[newvoter].isvoted = true;\n            candidates_arr[_index].votes_recv += 1;\n        }\n\n\n\n        function results() onlyadmin public returns(uint256 _BJP1,uint256 _CONGRESS1,uint256 _AAP1, uint256 _OTHERS1)  {\n    \n            for(uint256 i = 0; i < candidates_arr_length; i++){\n                if(keccak256(abi.encodePacked(candidates_arr[i].party))  == keccak256('BJP')){\n                    _BJP += candidates_arr[i].votes_recv;\n                }\n                else if(keccak256(abi.encodePacked(candidates_arr[i].party))  == keccak256('CONGRESS')){\n                    _CONGRESS+=candidates_arr[i].votes_recv;\n                }   \n                else if(keccak256(abi.encodePacked(candidates_arr[i].party))  == keccak256('AAP')){\n                    _AAP+=candidates_arr[i].votes_recv;\n                }\n                else{\n                    _OTHERS+=candidates_arr[i].votes_recv;\n                }\n            }\n            return (_BJP, _CONGRESS, _AAP, _OTHERS);\n        }\n    }\n        // modifier beforestartdate{}\n        // modifier afterenddate{}\n        // modifier validelctiontime{}\n\n",
  "sourcePath": "/home/siddhant/Internship_CIDR/server-authentication/Evoting/contracts/Election.sol",
  "compiler": {
    "name": "solc",
    "version": "0.4.25+commit.59dbf8f1.Emscripten.clang"
  },
  "schemaVersion": "2.0.2",
  "updatedAt": "2019-06-24T09:09:45.092Z"
}