{
  "contractName": "Election",
  "abi": [
    {
      "constant": true,
      "inputs": [
        {
          "name": "",
          "type": "uint256"
        }
      ],
      "name": "candidates_arr",
      "outputs": [
        {
          "name": "party",
          "type": "string"
        },
        {
          "name": "candidate_id",
          "type": "address"
        },
        {
          "name": "votes_recv",
          "type": "uint256"
        }
      ],
      "payable": false,
      "stateMutability": "view",
      "type": "function"
    },
    {
      "constant": true,
      "inputs": [],
      "name": "candidates_arr_length",
      "outputs": [
        {
          "name": "",
          "type": "uint256"
        }
      ],
      "payable": false,
      "stateMutability": "view",
      "type": "function"
    },
    {
      "inputs": [],
      "payable": false,
      "stateMutability": "nonpayable",
      "type": "constructor"
    },
    {
      "constant": false,
      "inputs": [
        {
          "name": "_length",
          "type": "uint256"
        }
      ],
      "name": "set_candidates_arr_len",
      "outputs": [],
      "payable": false,
      "stateMutability": "nonpayable",
      "type": "function"
    },
    {
      "constant": false,
      "inputs": [
        {
          "name": "toVoterr",
          "type": "string"
        }
      ],
      "name": "giveRightToVote",
      "outputs": [],
      "payable": false,
      "stateMutability": "nonpayable",
      "type": "function"
    },
    {
      "constant": false,
      "inputs": [
        {
          "name": "_candidate_ids",
          "type": "string"
        },
        {
          "name": "_party",
          "type": "string"
        }
      ],
      "name": "registerCandidates",
      "outputs": [],
      "payable": false,
      "stateMutability": "nonpayable",
      "type": "function"
    },
    {
      "constant": false,
      "inputs": [
        {
          "name": "_index",
          "type": "uint256"
        }
      ],
      "name": "vote",
      "outputs": [],
      "payable": false,
      "stateMutability": "nonpayable",
      "type": "function"
    }
  ],
  "bytecode": "0x608060405260006002556000600355600060045534801561001f57600080fd5b5033600560006101000a81548173ffffffffffffffffffffffffffffffffffffffff021916908373ffffffffffffffffffffffffffffffffffffffff1602179055506001600080600560009054906101000a900473ffffffffffffffffffffffffffffffffffffffff1673ffffffffffffffffffffffffffffffffffffffff1673ffffffffffffffffffffffffffffffffffffffff16815260200190815260200160002060020160006101000a81548160ff021916908315150217905550610fba806100ec6000396000f300608060405260043610610078576000357c0100000000000000000000000000000000000000000000000000000000900463ffffffff1680630121b93f1461007d5780631faa036f146100aa5780632846b7da1461018a5780637f9c414a146101b5578063a3e7ac911461021e578063c1700e001461024b575b600080fd5b34801561008957600080fd5b506100a8600480360381019080803590602001909291905050506102fa565b005b3480156100b657600080fd5b506100d560048036038101908080359060200190929190505050610511565b60405180806020018473ffffffffffffffffffffffffffffffffffffffff1673ffffffffffffffffffffffffffffffffffffffff168152602001838152602001828103825285818151815260200191508051906020019080838360005b8381101561014d578082015181840152602081019050610132565b50505050905090810190601f16801561017a5780820380516001836020036101000a031916815260200191505b5094505050505060405180910390f35b34801561019657600080fd5b5061019f610602565b6040518082815260200191505060405180910390f35b3480156101c157600080fd5b5061021c600480360381019080803590602001908201803590602001908080601f0160208091040260200160405190810160405280939291908181526020018383808284378201915050505050509192919290505050610608565b005b34801561022a57600080fd5b5061024960048036038101908080359060200190929190505050610822565b005b34801561025757600080fd5b506102f8600480360381019080803590602001908201803590602001908080601f0160208091040260200160405190810160405280939291908181526020018383808284378201915050505050509192919290803590602001908201803590602001908080601f0160208091040260200160405190810160405280939291908181526020018383808284378201915050505050509192919290505050610926565b005b60003390506000808273ffffffffffffffffffffffffffffffffffffffff1673ffffffffffffffffffffffffffffffffffffffff16815260200190815260200160002060000160009054906101000a900460ff161515156103c3576040517f08c379a000000000000000000000000000000000000000000000000000000000815260040180806020018281038252601f8152602001807f596f75206861766520616c726561647920566f7465642e205468616e6b73210081525060200191505060405180910390fd5b6001805490508210151561043f576040517f08c379a00000000000000000000000000000000000000000000000000000000081526004018080602001828103825260198152602001807f53656c65637420726967687420696e64657820706c656173650000000000000081525060200191505060405180910390fd5b816000808373ffffffffffffffffffffffffffffffffffffffff1673ffffffffffffffffffffffffffffffffffffffff1681526020019081526020016000206001018190555060016000808373ffffffffffffffffffffffffffffffffffffffff1673ffffffffffffffffffffffffffffffffffffffff16815260200190815260200160002060000160006101000a81548160ff021916908315150217905550600180838154811015156104ef57fe5b9060005260206000209060030201600201600082825401925050819055505050565b60018181548110151561052057fe5b9060005260206000209060030201600091509050806000018054600181600116156101000203166002900480601f0160208091040260200160405190810160405280929190818152602001828054600181600116156101000203166002900480156105cc5780601f106105a1576101008083540402835291602001916105cc565b820191906000526020600020905b8154815290600101906020018083116105af57829003601f168201915b5050505050908060010160009054906101000a900473ffffffffffffffffffffffffffffffffffffffff16908060020154905083565b60025481565b6000600560009054906101000a900473ffffffffffffffffffffffffffffffffffffffff1673ffffffffffffffffffffffffffffffffffffffff163373ffffffffffffffffffffffffffffffffffffffff161415156106f5576040517f08c379a00000000000000000000000000000000000000000000000000000000081526004018080602001828103825260238152602001807f4f6e6c792061646d696e2063616e2061636365737320746869732066756e637481526020017f696f6e000000000000000000000000000000000000000000000000000000000081525060400191505060405180910390fd5b6106fe82610af4565b90506000808273ffffffffffffffffffffffffffffffffffffffff1673ffffffffffffffffffffffffffffffffffffffff16815260200190815260200160002060000160009054906101000a900460ff161515156107c4576040517f08c379a00000000000000000000000000000000000000000000000000000000081526004018080602001828103825260188152602001807f20566f7465722068617320616c726561647920766f746564000000000000000081525060200191505060405180910390fd5b60016000808373ffffffffffffffffffffffffffffffffffffffff1673ffffffffffffffffffffffffffffffffffffffff16815260200190815260200160002060020160006101000a81548160ff0219169083151502179055505050565b600560009054906101000a900473ffffffffffffffffffffffffffffffffffffffff1673ffffffffffffffffffffffffffffffffffffffff163373ffffffffffffffffffffffffffffffffffffffff1614151561090d576040517f08c379a00000000000000000000000000000000000000000000000000000000081526004018080602001828103825260238152602001807f4f6e6c792061646d696e2063616e2061636365737320746869732066756e637481526020017f696f6e000000000000000000000000000000000000000000000000000000000081525060400191505060405180910390fd5b8060018161091b9190610e11565b508060028190555050565b6000600560009054906101000a900473ffffffffffffffffffffffffffffffffffffffff1673ffffffffffffffffffffffffffffffffffffffff163373ffffffffffffffffffffffffffffffffffffffff16141515610a13576040517f08c379a00000000000000000000000000000000000000000000000000000000081526004018080602001828103825260238152602001807f4f6e6c792061646d696e2063616e2061636365737320746869732066756e637481526020017f696f6e000000000000000000000000000000000000000000000000000000000081525060400191505060405180910390fd5b610a1c83610af4565b9050806001600354815481101515610a3057fe5b906000526020600020906003020160010160006101000a81548173ffffffffffffffffffffffffffffffffffffffff021916908373ffffffffffffffffffffffffffffffffffffffff160217905550816001600354815481101515610a9157fe5b90600052602060002090600302016000019080519060200190610ab5929190610e43565b5060006001600354815481101515610ac957fe5b9060005260206000209060030201600201819055506001600360008282540192505081905550505050565b6000606060008060008086945060009350600290505b602a811015610e0457610100840293508481815181101515610b2857fe5b9060200101517f010000000000000000000000000000000000000000000000000000000000000090047f0100000000000000000000000000000000000000000000000000000000000000027f0100000000000000000000000000000000000000000000000000000000000000900460ff1692508460018201815181101515610bac57fe5b9060200101517f010000000000000000000000000000000000000000000000000000000000000090047f0100000000000000000000000000000000000000000000000000000000000000027f0100000000000000000000000000000000000000000000000000000000000000900460ff16915060618373ffffffffffffffffffffffffffffffffffffffff1610158015610c5d575060668373ffffffffffffffffffffffffffffffffffffffff1611155b15610c6d57605783039250610d07565b60418373ffffffffffffffffffffffffffffffffffffffff1610158015610cab575060468373ffffffffffffffffffffffffffffffffffffffff1611155b15610cbb57603783039250610d06565b60308373ffffffffffffffffffffffffffffffffffffffff1610158015610cf9575060398373ffffffffffffffffffffffffffffffffffffffff1611155b15610d05576030830392505b5b5b60618273ffffffffffffffffffffffffffffffffffffffff1610158015610d45575060668273ffffffffffffffffffffffffffffffffffffffff1611155b15610d5557605782039150610def565b60418273ffffffffffffffffffffffffffffffffffffffff1610158015610d93575060468273ffffffffffffffffffffffffffffffffffffffff1611155b15610da357603782039150610dee565b60308273ffffffffffffffffffffffffffffffffffffffff1610158015610de1575060398273ffffffffffffffffffffffffffffffffffffffff1611155b15610ded576030820391505b5b5b81601084020184019350600281019050610b0a565b8395505050505050919050565b815481835581811115610e3e57600302816003028360005260206000209182019101610e3d9190610ec3565b5b505050565b828054600181600116156101000203166002900490600052602060002090601f016020900481019282601f10610e8457805160ff1916838001178555610eb2565b82800160010185558215610eb2579182015b82811115610eb1578251825591602001919060010190610e96565b5b509050610ebf9190610f21565b5090565b610f1e91905b80821115610f1a5760008082016000610ee29190610f46565b6001820160006101000a81549073ffffffffffffffffffffffffffffffffffffffff0219169055600282016000905550600301610ec9565b5090565b90565b610f4391905b80821115610f3f576000816000905550600101610f27565b5090565b90565b50805460018160011615610100020316600290046000825580601f10610f6c5750610f8b565b601f016020900490600052602060002090810190610f8a9190610f21565b5b505600a165627a7a72305820225aff8d21a9de7974c67c77cb091e2899ba00f9a7452a858f21b0779cae62e30029",
  "source": "pragma solidity >=0.4.25;\n\ncontract Election{\n    \n    struct voter{\n        bool isvoted;\n        uint256 vote; // the array index to be voted\n        bool rights;    // true, if someone has rights to vote\n        \n    }\n    mapping(address => voter) voters;\n    \n    struct candidate{\n        string party; \n        address candidate_id; // this is where votes will be sent.\n        uint256 votes_recv;\n    }\n    candidate[] public  candidates_arr;\n     uint256 public candidates_arr_length = 0 ;\n    \n    \n    uint256 index = 0;\n    uint256 party_index =0;\n    \n    address admin;\n    \n    constructor() public{\n        admin = msg.sender;\n        voters[admin].rights  = true;   \n    }\n    \n    modifier onlyadmin{\n        require(msg.sender == admin, 'Only admin can access this function');\n        _;\n    }\n    \n    // address parser\n    function parseAddr(string memory _a) internal pure returns (address _parsedAddress) {\n    bytes memory tmp = bytes(_a);\n    uint160 iaddr = 0;\n    uint160 b1;\n    uint160 b2;\n    for (uint i = 2; i < 2 + 2 * 20; i += 2) {\n        iaddr *= 256;\n        b1 = uint160(uint8(tmp[i]));\n        b2 = uint160(uint8(tmp[i + 1]));\n        if ((b1 >= 97) && (b1 <= 102)) {\n            b1 -= 87;\n        } else if ((b1 >= 65) && (b1 <= 70)) {\n            b1 -= 55;\n        } else if ((b1 >= 48) && (b1 <= 57)) {\n            b1 -= 48;\n        }\n        if ((b2 >= 97) && (b2 <= 102)) {\n            b2 -= 87;\n        } else if ((b2 >= 65) && (b2 <= 70)) {\n            b2 -= 55;\n        } else if ((b2 >= 48) && (b2 <= 57)) {\n            b2 -= 48;\n        }\n        iaddr += (b1 * 16 + b2);\n    \n    }\n    return address(uint160(iaddr));\n    }\n    \n    \n    // set array length\n    function set_candidates_arr_len(uint256 _length) onlyadmin public{\n        candidates_arr.length = _length;\n        candidates_arr_length = _length;\n    }\n    \n\n    // give rights to voter\n    function giveRightToVote(string memory toVoterr) onlyadmin public {\n        address toVoter = parseAddr(toVoterr);\n        require(!voters[toVoter].isvoted, ' Voter has already voted');\n        voters[toVoter].rights = true;\n    }\n    \n    \n    // register candidates\n    function registerCandidates(string memory _candidate_ids, string memory _party) onlyadmin public{\n        address _candidate_id = parseAddr(_candidate_ids);\n        candidates_arr[index].candidate_id = _candidate_id;\n        candidates_arr[index].party = _party;\n        candidates_arr[index].votes_recv = 0;\n        index+=1;\n    }\n    \n    // Cast Vote // require only_registered \n    function vote(uint256 _index) public{\n        address newvoter = msg.sender;\n        require(!voters[newvoter].isvoted,'You have already Voted. Thanks!');\n        require(_index < candidates_arr.length, 'Select right index please');\n        voters[newvoter].vote = _index;\n        voters[newvoter].isvoted = true;\n        candidates_arr[_index].votes_recv += 1;\n    }\n\n    // To get the candidates list first call candidates_arr_length \n    // then iterate n times to fetch candidate's info one by one \n    // by calling candidates_arr\n\n}\n\n\n    \n        // modifier beforestartdate{}\n    \n    // modifier afterenddate{}\n    \n    // modifier validelctiontime{}\n    \n",
  "sourcePath": "/home/siddhant/Internship_CIDR/server-authentication/Evoting/contracts/Election.sol",
  "compiler": {
    "name": "solc",
    "version": "0.4.25+commit.59dbf8f1.Emscripten.clang"
  },
  "schemaVersion": "2.0.2",
  "updatedAt": "2019-06-18T19:30:54.074Z"
}